:100000000C9441010C9472010C9472010C947201D5
:100010000C9472010C9472010C9472010C94720194
:100020000C9472010C9472010C9472010C94720184
:100030000C9472010C9472010C9472010C94720174
:100040000C9472010C9472010C9472010C94720164
:100050000C9472010C9472010C9472010C94AF0711
:100060000C9472010C9423080C94F9070C947201FF
:100070000C9472010C9472010C9472010C94720134
:100080000C9472010C9472010C9472010C94720124
:100090000C9472010C9472010C9472010C947D0604
:1000A0000C9472010C9472010C9472010C94720104
:1000B0000C9472010C9472010C9472010C947201F4
:1000C0000C9472010C9472010C9472010C947201E4
:1000D0000C9472010C9472010C9472010C947201D4
:1000E0000C947201FF010202F101F501F9013902DC
:1000F00006020A021002140218021E02220226023E
:1001000039022C02300234020C9406020C94F501E0
:100110000C9459080C947B020C9498020C94A00245
:100120000C94D0020C9422020C9439020C946605B3
:100130000C9488050C947A020C9489020C941E028B
:100140000C9426020C9454030C942C020C947A0503
:100150000C94F1010C94FF010C94A3030C9475030F
:100160000C943B050C940A020C948F030C9402022D
:100170000C9430020C9406060C94F9010C94DE04E5
:100180000C9434020C9410020C9414020C94180277
:100190000C94BF0500002200250028002B002E0033
:1001A0003100340002010000050108010B010505C2
:1001B0000505070508080808020202020A0A0808DD
:1001C000040404040101010101010101030303030B
:1001D00003030303040707070C0C0C0C0C0C0C0C9A
:1001E0000202020206060606060606060B0B0B0BAB
:1001F0000B0B0B0B010210202008081020401020D0
:1002000040800201020108040201010204081020DA
:1002100040808040201008040201800402018040D8
:100220002010080402010804020101020408102041
:100230004080010204081020408000000A0B0209DF
:100240000C0D0E0807030401000000000000000070
:10025000000000000000000000000000000000009E
:10026000000000000000121110000000000000005B
:10027000000000000000000000000000000000007E
:10028000590811241FBECFEFD1E2DEBFCDBF00E081
:100290000CBF13E0A0E0B2E0EAE6F4E100E00BBF3F
:1002A00002C007900D92A431B107D9F724E0A4E170
:1002B000B3E001C01D92A337B207E1F711E0C1E43A
:1002C000D1E000E006C021970109802FFE010E94C5
:1002D000260AC034D10780E00807A9F70E94B308B6
:1002E0000C94330A0C9400002091B0039091AF035A
:1002F000213208F04AC080918C038111FCCF32E09A
:1003000030938C0331E030938B033FEF30938A03BB
:100310001092890320938803AFE8B3E048E653E0E6
:10032000FA013E2F341B321718F43D913193F9CF67
:100330001092670320916703990F922B90936703A4
:1003400090916603913061F4109266039091670377
:100350009093BB009091BC0093FDF8CF95EC01C049
:1003600095EE9093BC0090918C039230E1F39091C4
:100370008A039F3F79F080918A03803241F0809117
:100380008A03803331F084E005C081E003C082E05D
:1003900001C083E010928E031092B00310928D037F
:1003A000089590E0FC01E65CFD4F4491FC01EC50A7
:1003B000FE4F2491FC01E255FE4F9491992309F4DC
:1003C00066C0442309F455C050E0FA013197E23188
:1003D000F10508F04EC08827EE58FF4F8F4F0C9460
:1003E000260A809180008F7707C0809180008F7DE2
:1003F00003C080918000877F809380003AC084B5DD
:100400008F7702C084B58F7D84BD33C08091B000EA
:100410008F7703C08091B0008F7D8093B00029C09A
:10042000809190008F7707C0809190008F7D03C0EE
:1004300080919000877F809390001BC08091A000E6
:100440008F7707C08091A0008F7D03C08091A000AE
:10045000877F8093A0000DC0809120018F7707C017
:10046000809120018F7D03C080912001877F809340
:100470002001E92FF0E0EE0FFF1FEC56FE4FA59193
:10048000B4918FB7F894EC912E2B2C938FBF0895D5
:1004900085ED8093BC008091BC0084FDFCCF109260
:1004A0008C03089540914103262F30E0240F311D25
:1004B00021323105DCF420918C032430C9F4FC0195
:1004C00080E090E0861758F4309141032191DC01DF
:1004D000A15EBC4FA30FB11D2C930196F3CF809169
:1004E0004103680F6093410380E0089581E008951F
:1004F00082E00895089581E090E030911E032091FC
:100500001D03321710F480E090E0919581959109D8
:10051000089580911E0390911D03891730F48F5F19
:1005200080931E0380E090E008958FEF9FEF089581
:1005300080911D0390E020911E03821B9109089574
:10054000CF92DF92EF92FF920F931F93CF93DF939F
:100550007C01262F972F8A0180918D03882391F0AB
:10056000C62FD72F6E01C40ED51ECC15DD0571F038
:100570006991D701ED91FC910190F081E02DC701C7
:100580001995F3CF642F822F0E945202C801DF9188
:10059000CF911F910F91FF90EF90DF90CF90089532
:1005A000CF93DF931F92CDB7DEB7698320918D0380
:1005B0002223D1F02091B003203240F021E030E03E
:1005C000FC013383228380E090E015C080918E038C
:1005D000E82FF0E0E157FC4F998190838F5F809383
:1005E0008E038093B00305C061E0CE0101960E94A6
:1005F000520281E090E00F90DF91CF910895FC01CD
:1006000023812223B9F091819095692360838281AF
:1006100091E090938D038093AF0310928E0310921C
:10062000B00381EB93E00E94D0020E947401282F56
:1006300030E002C020E030E081E090E0232B11F0B8
:1006400080E090E00895EF92FF920F931F93CF9375
:100650008C01FC01759684E0C0E060FF02C09081CF
:10066000C92B6695815031968111F7CF413011F435
:10067000F8014489F8018585C82BC42B7801FEE078
:10068000EF0EF11CF80162896C2BC7010E94FF027A
:10069000F801628960956C23C701CF911F910F917A
:1006A000FF90EF900C94FF020F931F93CF93DF9373
:1006B000062F0F70423019F440E0602F10C0142F45
:1006C000262FEC0130E0B90184E0759567958A9595
:1006D000E1F7CE010E942303412F602FCE01DF916D
:1006E000CF911F910F910C942303FC0184858823E3
:1006F000A9F0218532852115310519F4611106C053
:1007000007C02130310521F4611102C0858701C085
:1007100015866585CF010E960C94FF02089521E0A1
:1007200001C0220F6A95EAF7DC011C962C931C97F6
:100730001A965C934E931997ED91FC910084F18584
:10074000E02D60E01994DC01ED91FC910284F385C9
:10075000E02D41E0199581E090E00895DC01ED91F4
:10076000FC910284F385E02D40E01994CF93DF9350
:10077000CDB7DEB728970FB6F894DEBF0FBECDBF5A
:100780001D8290E49E8324E12F8324E5288719822B
:100790009A8390E19B8390E59C832091610482176A
:1007A00010F08FEF820F3091620490E0FE01E80FAD
:1007B000F91F303121F4243011F4618101C06581C9
:1007C00060688AE594E028960FB6F894DEBF0FBE05
:1007D000CDBFDF91CF910C94AE03089508953FB73C
:1007E000F8948091190390911A03A0911B03B09182
:1007F0001C0326B5A89B05C02F3F19F00196A11D2B
:10080000B11D3FBFBA2FA92F982F8827820F911DA6
:10081000A11DB11DBC01CD0142E0660F771F881FED
:10082000991F4A95D1F708958F929F92AF92BF92E8
:10083000CF92DF92EF92FF926B017C010E94EF0357
:100840004B015C01C114D104E104F104F1F00E94F8
:10085000EF03DC01CB0188199909AA09BB09883E7D
:100860009340A105B10570F321E0C21AD108E10857
:10087000F10888EE880E83E0981EA11CB11CC114FB
:10088000D104E104F10419F7DDCFFF90EF90DF9080
:10089000CF90BF90AF909F908F9008950F931F932C
:1008A000CF93DF93EC01423018F08C8188608C8309
:1008B0004F836887222329F0413019F48C818460AA
:1008C0008C8364E670E080E090E00E9414046C8108
:1008D00064FD31C0E881F9810284F385E02D42E0B6
:1008E00063E0CE0119958BE496E40197F1F7E88176
:1008F000F9810284F385E02D42E063E0CE01199591
:1009000003E512E0C8010197F1F7E881F98102845B
:10091000F385E02D42E063E0CE011995C80101970F
:10092000F1F7E881F9810284F385E02D42E062E08D
:10093000CE01199517C06062CE010E94AE038BE410
:1009400096E40197F1F76C816062CE010E94AE03DC
:1009500003E512E0C8010197F1F76C816062CE01F6
:100960000E94AE03C8010197F1F76C816062CE016D
:100970000E94AE038BEE90E00197F1F784E08D8347
:100980006CE0CE010E94AE0361E0CE010E94AE0396
:100990008BE39FE10197F1F782E08E8366E0CE0161
:1009A0000E94AE03E881F9810084F185E02D6FEFAC
:1009B000CE01DF91CF911F910F911994EF92FF9289
:1009C0000F931F93CF93DF93EC01062FF42EE22EAB
:1009D0008B85888B10921E0310921D0310928E033C
:1009E0001092B00310928C0311E010938B031092BD
:1009F000660384E10E94D10185E10E94D1018091CA
:100A0000B9008E7F8093B9008091B9008D7F80936B
:100A1000B90088E48093B80085E48093BC0088899D
:100A200010938D038093AF0310928E031092B00346
:100A30000E94740191E0811190E0998B992329F033
:100A400081EB93E00E9489028E878989882339F09F
:100A50001F861C8260E0CE010E960E94FF022E2DA2
:100A60004F2D602FCE01DF91CF911F910F91FF90FD
:100A7000EF900C944E04CF92DF92EF92FF920F937F
:100A80001F93CF93DF936C017A018B01C0E0D0E01C
:100A9000CE15DF0589F0D8016D918D01D601ED915C
:100AA000FC910190F081E02DC6011995892B11F47C
:100AB0007E0102C02196ECCFC701DF91CF911F913B
:100AC0000F91FF90EF90DF90CF900895FC01918DF2
:100AD000828D981761F0828DDF01A80FB11D5D96A0
:100AE0008C91928D9F5F9F73928F90E008958FEF0E
:100AF0009FEF0895FC01918D828D981731F0828DC2
:100B0000E80FF11D858D90E008958FEF9FEF089518
:100B1000FC01918D228D892F90E0805C9F4F821B7C
:100B200091098F73992708958DEB93E00E948805B2
:100B300021E0892B09F420E0822F0895FC01848DA7
:100B4000DF01A80FB11DA35ABF4F2C91848D90E0F7
:100B500001968F739927848FA689B7892C93A089D2
:100B6000B1898C9180648C93938D848D981306C089
:100B70000288F389E02D80818F7D80830895EF9234
:100B8000FF920F931F93CF93DF93EC0181E0888F47
:100B90009B8D8C8D981305C0E889F989808185FD2E
:100BA00024C0F62E0B8D10E00F5F1F4F0F7311271F
:100BB000E02E8C8DE8120CC00FB607FCFACFE88946
:100BC000F989808185FFF5CFCE010E949E05F1CF86
:100BD0008B8DFE01E80FF11DE35AFF4FF0820B8F62
:100BE000EA89FB898081806207C0EE89FF89608382
:100BF000E889F98980818064808381E090E0DF91D9
:100C0000CF911F910F91FF90EF900895CF93DF93B5
:100C1000EC01888D8823C9F0EA89FB89808185FDF4
:100C200005C0A889B9898C9186FD0FC00FB607FC55
:100C3000F5CF808185FFF2CFA889B9898C9185FF96
:100C4000EDCFCE010E949E05E7CFDF91CF910895B1
:100C500080E090E0892B21F00E949405811125C04D
:100C600080E090E0892B41F080E090E0892B21F03A
:100C70000E94000081111CC080E090E0892B41F0AF
:100C800080E090E0892B21F00E940000811113C0C8
:100C900080E090E0892BA1F080E090E0892B81F04A
:100CA0000E94000081110AC008950E940000D8CF60
:100CB0000E940000E1CF0E940000EACF0C940000E7
:100CC00008950E942E0A6115710579F0FB010190CB
:100CD0000020E9F73197AF01461B570BDC01ED917E
:100CE000FC910280F381E02D199480E090E008955A
:100CF000BC018AE594E00C9463061F920F920FB634
:100D00000F9211240BB60F922F933F934F935F9343
:100D10006F937F938F939F93AF93BF93EF93FF93C3
:100D20008091B900887F803609F49CC068F58832CC
:100D300009F45BC090F4803109F454C038F488237E
:100D400009F4F6C0883009F44DC0F6C0883109F4C2
:100D50004CC0803209F45DC0EFC0803409F468C033
:100D600048F4803309F455C0883309F0E5C0809316
:100D70008A03D8C0803509F44FC0883509F45DC0B6
:100D8000883409F0D9C0D6C0883909F4C7C0A8F49E
:100D9000883709F467C038F4883609F463C08037AF
:100DA00009F460C0C9C0883809F4B8C0803909F4B2
:100DB0005FC0803809F0C0C05BC0803B09F486C0CA
:100DC00038F4803A09F466C0883A09F47FC0B4C0A8
:100DD000803C09F4A7C0883C09F4A4C0883B09F40E
:100DE0008AC0AAC08091670310C090918903809146
:100DF0008803981770F5E091890381E08E0F809346
:100E00008903F0E0E859FC4F80818093BB0085ECBA
:100E100086C080938A038EC0E091890381E08E0FA3
:100E2000809389038091BB00F0E0E859FC4F8083F8
:100E300090918903809188036EC0E091890381E0DD
:100E40008E0F809389038091BB00F0E0E859FC4F3E
:100E5000808380918B0381116DC081E08093660354
:100E600084EA61C083E080938C0310926503CFCF46
:100E700080916503803208F051C0E091650381E004
:100E80008E0F809365038091BB00F0E0EB5BFC4F1D
:100E90008083BDCF85EC8093BC0010928C03809141
:100EA0006503803230F4E0916503F0E0EB5BFC4FCA
:100EB00010826091650370E0E0914303F091440378
:100EC00085E493E019951092650336C084E0809321
:100ED0008C031092420310924103E0913F03F09182
:100EE0004003199580914103811105C081E08093F1
:100EF000410310921F03E091420381E08E0F809323
:100F00004203F0E0E15EFC4F80818093BB00909152
:100F1000420380914103981708F479CF85E88093C4
:100F2000BC000AC085EC8093BC0010928C0304C006
:100F300010928A030E944802FF91EF91BF91AF91F6
:100F40009F918F917F916F915F914F913F912F91E1
:100F50000F900BBE0F900FBE0F901F9018951F9211
:100F60000F920FB60F9211242F933F938F939F935D
:100F7000AF93BF938091150390911603A09117032F
:100F8000B09118033091140323E0230F2D3720F480
:100F90000196A11DB11D05C026E8230F0296A11DD3
:100FA000B11D209314038093150390931603A0930F
:100FB0001703B09318038091190390911A03A0911D
:100FC0001B03B0911C030196A11DB11D8093190351
:100FD00090931A03A0931B03B0931C03BF91AF918E
:100FE0009F918F913F912F910F900FBE0F901F9067
:100FF00018951F920F920FB60F9211240BB60F92F5
:101000002F933F934F935F936F937F938F939F9310
:10101000AF93BF93EF93FF938DEB93E00E949E05F8
:10102000FF91EF91BF91AF919F918F917F916F91C0
:101030005F914F913F912F910F900BBE0F900FBE7C
:101040000F901F9018951F920F920FB60F921124B8
:101050000BB60F922F938F939F93EF93FF93E09193
:10106000CD03F091CE038081E091D303F091D403BE
:1010700082FD12C090818091D6038F5F8F73209183
:10108000D703821751F0E091D603F0E0E354FC4F10
:10109000958F8093D60301C08081FF91EF919F913E
:1010A0008F912F910F900BBE0F900FBE0F901F903E
:1010B0001895E1EBF3E01382128288EE93E0A0E052
:1010C000B0E084839583A683B78324E532E031833F
:1010D0002083EDEBF3E01382128284839583A68351
:1010E000B78384E692E09183808385EC90E09587D6
:1010F000848784EC90E09787868780EC90E0918BE2
:10110000808B81EC90E0938B828B82EC90E0958BCE
:10111000848B86EC90E0978B868B118E128E138ECB
:10112000148EEAE5F4E01382128284E792E0918360
:101130008083108A8FEF87871686118A87E28387DC
:10114000148615861286118684E0828B82E0838B5A
:1011500081E0848B80E1858B80E2868B80E4878BC5
:1011600080E8808F0895CF93DF93CDB7DEB7C05569
:10117000D1090FB6F894DEBF0FBECDBF789484B509
:10118000826084BD84B5816084BD85B5826085BD83
:1011900085B5816085BD80916E00816080936E0011
:1011A0001092810080918100826080938100809103
:1011B00081008160809381008091800081608093B4
:1011C00080008091B10084608093B1008091B00074
:1011D00081608093B0008091910082608093910043
:1011E0008091910081608093910080919000816056
:1011F000809390008091A10082608093A1008091F3
:10120000A10081608093A1008091A0008160809303
:10121000A0008091210182608093210180912101B1
:101220008160809321018091200181608093200161
:1012300080917A00846080937A0080917A00826045
:1012400080937A0080917A00816080937A00809107
:101250007A00806880937A001092C100E091CD03FB
:10126000F091CE0382E08083E091C903F091CA033C
:101270001082E091CB03F091CC038FEC808310922D
:10128000D503E091D103F091D20386E08083E09111
:10129000CF03F091D003808180618083E091CF0300
:1012A000F091D003808188608083E091CF03F0913A
:1012B000D003808180688083E091CF03F091D003D8
:1012C00080818F7D808320E044E064E18AE594E0C2
:1012D0000E94DE0440E050E063E08AE594E00E9472
:1012E0008F0361E08AE594E00E94750380E00E942C
:1012F000B60380E892E00E94780662E070E080E049
:1013000090E00E94140481E00E94B60380E992E01C
:101310000E94780662E070E080E090E00E94140491
:1013200082E00E94B60385EA92E00E94780662E0BD
:1013300070E080E090E00E94140483E00E94B60315
:101340008AEB92E00E94780662E070E080E090E034
:101350000E94140468E873E180E090E00E941404A5
:1013600080E00E94B6038FEC92E00E94780681E054
:101370000E94B60385ED92E00E94780660ED77E06A
:1013800080E090E00E94140468E873E180E090E05F
:101390000E94140480E5E0E0F2E0DE011196019085
:1013A0000D928A95E1F780E00E94B60380EE92E00C
:1013B0000E94780680E00E94B603CE0101960E944A
:1013C000780681E00E94B60380EE92E00E947806E3
:1013D00081E00E94B603CE0145960E94780682E025
:1013E0000E94B60380EE92E00E94780682E00E949E
:1013F000B603CE0189960E94780683E00E94B60368
:1014000080EE92E00E94780683E00E94B603CE014F
:10141000CD960E94780665EF72E08DEB93E00E9416
:10142000630666E073E08DEB93E00E94630669E07B
:1014300073E08DEB93E00E94630666E073E08DEB52
:1014400093E00E9463060E942806FDCFEE0FFF1F67
:10145000881F8BBF0790F691E02D199481E090E0F2
:0A146000F8940C94330AF894FFCFBF
:10146A00535441545553203030313A200000000083
:10147A000000000050414E454C20504F5745522025
:10148A004F464600000000003333330000000000DE
:10149A0000000000000000000000000034343400A6
:1014AA000000000000000000000000000000000032
:1014BA0000000000D002A002980289027B027A0290
:1014CA0000000000BF053B05880566057A0506068B
:1014DA0000000000A3033B05DE048F0375035403D9
:1014EA0058585858585858585858585858585800CA
:1014FA0031202020202020202020202020202020D1
:10150A0020202031003220202020202020202020CE
:10151A0020202020202020203200332020202020BC
:10152A002020202020202020202020202033004896
:10153A00454C4C4F0048454C4C4F203220686900BE
:10154A002020202020202020202020202020202091
:10155A002020202000737461747573207072696E84
:10156A007465643A20000D0A00636F6D706C6574CF
:04157A00652E0000DA
:00000001FF
