:1000000025C1000054C1000052C1000050C10000D1
:100010004EC100004CC100004AC1000048C10000B0
:1000200046C1000098C6000096C6000094C60000B5
:100030003EC100003CC100003AC1000038C10000D0
:1000400036C1000034C1000032C1000030C10000E0
:100050002EC100002CC100002AC1000032C60000E1
:1000600026C10000BEC2000093C2000020C10000F3
:100070001EC100001CC100001AC1000018C1000010
:1000800016C1000014C1000012C1000010C1000020
:100090000EC100000CC100000AC10000F0C6000043
:1000A00006C1000004C1000002C1000000C1000040
:1000B000FEC00000FCC00000FAC00000F8C0000054
:1000C000F6C00000F4C00000F2C00000F0C0000064
:1000D000EEC00000ECC00000EAC00000E8C0000074
:1000E000E6C0000042034503340338033E037C03AB
:1000F00049034D03530357035B036103650369031E
:100100007C036F037303770350524F4752414D4DA9
:10011000204552524F523A20554E4B4E4F574E208B
:100120005459504521210000002200250028002BB1
:10013000002E003100340002010000050108010B0F
:1001400001000020002300260029002C002F00328F
:10015000000001000003010601090105050505076E
:100160000508080808020202020A0A080804040432
:10017000040101010101010101030303030303035E
:1001800003040707070C0C0C0C0C0C0C0C020202ED
:100190000206060606060606060B0B0B0B0B0B0BE0
:1001A0000B0102102020080810204010204080027F
:1001B00001020108040201010204081020408080AD
:1001C0004020100804020180040201804020100831
:1001D0000402010804020101020408102040800109
:1001E0000204081020408000002100240027002A7B
:1001F000002D003000330001010000040107010A56
:100200000100000A0B02090C0D0E0807030401008F
:1002100000000000000000000000000000000000DE
:10022000000000000000000000000000001211109B
:1002300000000000000000000000000000000000BE
:1002400000000000000000007008430C11241FBED5
:10025000CFEFD1E2DEBFCDBF00E00CBF12E0A0E0E7
:10026000B2E0ECE6FDE100E00BBF02C007900D92AA
:10027000A03AB107D9F724E0A0EAB2E001C01D928C
:10028000A639B207E1F711E0C5E2D1E000E006C00F
:1002900021970109802FFE010E94640CC432D1070E
:1002A00080E00807A9F70E9488090C94A50EA8CE43
:1002B000E3E2F3E0A089B18982E08C93A485B5855F
:1002C0001C92A685B7858FEC8C93108EA489B58976
:1002D00086E08C93A289B3898C9180618C93A289EA
:1002E000B3898C9188608C93A289B3898C91806842
:1002F0008C930288F389E02D80818F7D808308951F
:10030000CF92DF92EF92FF920F931F93CF93DF93E1
:100310006C017A018B01C0E0D0E0CE15DF0589F0D9
:10032000D8016D918D01D601ED91FC910190F08184
:10033000E02DC6011995892B11F47E0102C021968A
:10034000ECCFC701DF91CF911F910F91FF90EF90FC
:10035000DF90CF900895FC01918D828D981761F008
:10036000828DDF01A80FB11D5D968C91928D9F5FEC
:100370009F73928F90E008958FEF9FEF0895FC0197
:10038000918D828D981731F0828DE80FF11D858D4A
:1003900090E008958FEF9FEF0895FC01918D228DDD
:1003A000892F90E0805C9F4F821B91098F73992762
:1003B000089583E293E0F1DF21E0892B09F420E046
:1003C000822F0895FC01848DDF01A80FB11DA35A6F
:1003D000BF4F2C91848D90E001968F739927848F65
:1003E000A689B7892C93A089B1898C9180648C935C
:1003F000938D848D981306C00288F389E02D808147
:100400008F7D80830895EF92FF920F931F93CF9378
:10041000DF93EC0181E0888F9B8D8C8D981305C054
:10042000E889F989808185FD23C0F62E0B8D10E0C7
:100430000F5F1F4F0F731127E02E8C8DE8120BC03A
:100440000FB607FCFACFE889F989808185FFF5CFDF
:10045000CE01B8DFF2CF8B8DFE01E80FF11DE35A1C
:10046000FF4FF0820B8FEA89FB898081806207C091
:10047000EE89FF896083E889F989808180648083BF
:1004800081E090E0DF91CF911F910F91FF90EF906D
:100490000895CF93DF93EC01888D8823C1F0EA891A
:1004A000FB89808185FD05C0A889B9898C9186FD6D
:1004B0000EC00FB607FCF5CF808185FFF2CFA8896B
:1004C000B9898C9185FFEDCFCE017CDFE8CFDF913C
:1004D000CF91089580E090E0892B19F06ADF8111B7
:1004E00025C080E090E0892B41F080E090E0892BEE
:1004F00021F00E94000081111CC080E090E0892B57
:1005000041F080E090E0892B21F00E9400008111F1
:1005100013C080E090E0892BA1F080E090E0892B6F
:1005200081F00E94000081110AC008950E9400001D
:10053000D8CF0E940000E1CF0E940000EACF0C94C7
:10054000000008956115710579F0FB01019000200C
:10055000E9F73197AF01461B570BDC01ED91FC9198
:100560000280F381E02D199480E090E00895CF930C
:10057000DF93BC0183E293E0E5DFEC0168E572E024
:1005800083E293E0DFDF8C0F9D1FDF91CF91089511
:100590001F920F920FB60F9211240BB60F922F934A
:1005A0003F934F935F936F937F938F939F93AF93FB
:1005B000BF93EF93FF9383E293E004DFFF91EF910A
:1005C000BF91AF919F918F917F916F915F914F916B
:1005D0003F912F910F900BBE0F900FBE0F901F9069
:1005E00018951F920F920FB60F9211240BB60F920F
:1005F0002F938F939F93EF93FF93E0913303F091A9
:1006000034038081E0913903F0913A0382FD12C0F6
:10061000908180913C038F5F8F7320913D038217FF
:1006200051F0E0913C03F0E0ED5DFC4F958F80933D
:100630003C0301C08081FF91EF919F918F912F9199
:100640000F900BBE0F900FBE0F901F90189590E06B
:10065000FC013197E231F10508F04EC08827EE58D1
:10066000FF4F8F4F0C94640C809180008F7703C0F4
:10067000809180008F7D809380000895809180001C
:10068000877FF9CF84B58F7702C084B58F7D84BD15
:1006900008958091B0008F7703C08091B0008F7D66
:1006A0008093B0000895809190008F7707C080916B
:1006B00090008F7D03C080919000877F8093900091
:1006C00008958091A0008F7707C08091A0008F7D52
:1006D00003C08091A000877F8093A000089580913F
:1006E00020018F7707C0809120018F7D03C080910A
:1006F0002001877F8093200108953FB7F89480916F
:100700008E0490918F04A0919004B091910426B52D
:10071000A89B05C02F3F19F00196A11DB11D3FBF39
:10072000BA2FA92F982F8827820F911DA11DB11DC7
:10073000BC01CD0142E0660F771F881F991F4A95C3
:10074000D1F708952091A6023091A7022817390702
:1007500071F49091A4028091A502981741F0E09164
:10076000A402F0E0E95FFB4F808190E008958FEFF5
:100770009FEF089508951F93CF93DF93DC015C965C
:100780002D913C915D972115310539F481E090E080
:1007900013969C938E9312973DC05196ED91FC91C8
:1007A000529750969C915097892F80951FB75E96CF
:1007B0004C915E9741FB772770F941FD6095F89465
:1007C0004081772311F0492B01C048234083E90180
:1007D0002197F1F748E0508160FF02C0592B01C01A
:1007E00058235083E9012197F1F76695415099F715
:1007F000772321F090818923808303C08081982B07
:1008000090831FBF5C968D919C915D970197F1F746
:1008100021E030E0C901DF91CF911F91089520912F
:10082000A6023091A7022817390769F48091A50222
:100830002091A40290E0805C9F4F821B910960E4AC
:1008400070E00C94510C80E090E008952091A60295
:100850003091A70228173907B9F49091A40280912A
:10086000A502981789F0E091A402F0E0E95FFB4F40
:1008700080812091A40230E02F5F3F4F2F733327F8
:100880002093A40290E008958FEF9FEF089585EDE7
:100890008093BC008091BC0084FDFCCF1092AA0222
:1008A00008954091E203262F30E0240F311D2132BC
:1008B0003105DCF42091AA022430C9F4FC0180E067
:1008C00090E0861758F43091E2032191DC01A054A6
:1008D000BC4FA30FB11D2C930196F3CF8091E2037F
:1008E000680F6093E20380E0089581E0089582E05C
:1008F0000895089581E090E03091AE022091AD021C
:10090000321710F480E090E0919581959109089557
:100910008091AE029091AD02891730F48F5F809381
:10092000AE0280E090E008958FEF9FEF08958091F0
:10093000AD0290E02091AE02821B91090895CF9202
:10094000DF92EF92FF920F931F93CF93DF937C017F
:10095000262F972F8A0180916B04882391F0C62F50
:10096000D72F6E01C40ED51ECC15DD0569F0699137
:10097000D701ED91FC910190F081E02DC70119950F
:10098000F3CF642F822F8DDFC801DF91CF911F91AC
:100990000F91FF90EF90DF90CF900895CF93DF936A
:1009A0001F92CDB7DEB7698320916B042223D1F06B
:1009B0002091AB02203240F021E030E0FC01338393
:1009C000228380E090E014C08091AC02E82FF0E038
:1009D000E459FB4F998190838F5F8093AC028093A1
:1009E000AB0204C061E0CE0101965BDF81E090E0E4
:1009F0000F90DF91CF910895CF93FC01C48121E046
:100A000020936B04C0938C041092AC021092AB0242
:100A10008385682B8FEA92E0C1DF8091AB0281323F
:100A200008F046C09091AA029111FCCF92E09093F9
:100A3000AA0291E09093A9029FEF90936A0410920A
:100A4000690480936804ACE6B4E028E434E0F9017A
:100A50009E2F921B981718F49D919193F9CF1092A5
:100A6000470480914704CC0FC82BC0934704809162
:100A7000A802813061F41092A8028091470480930B
:100A8000BB008091BC0083FDF8CF85EC01C085EEF2
:100A90008093BC008091AA028230E1F380916A04C5
:100AA0008F3F31F080916A04803211F080916A04A6
:100AB0001092AC021092AB0210926B04CF91089589
:100AC0000F931F93CF938C01C62F646095DF6C2F1B
:100AD0006B7FC80191DF83EC90E00197F1F7CF9134
:100AE0001F910F9108950F931F93CF93DF938C0164
:100AF000C62FD62FD07FD1606D2F7EDF6D2FC8011E
:100B0000DFDF80E1C89FB0011124C62FC1606C2FC8
:100B1000C80172DF6C2FC801D3DF81E090E0DF9164
:100B2000CF911F910F9108950E94910ECF93DF9363
:100B3000282F30E0F901EF5FFD4F8491F901EF5567
:100B4000FE4FD491F901E55AFE4FC491CC2389F0B0
:100B500081117DDDEC2FF0E0EE0FFF1FEF5BFE4F0C
:100B6000A591B491EC91ED2381E090E021F480E037
:100B700002C080E090E0DF91CF9108951F93CF9362
:100B8000DF93282F30E0F901EF5FFD4F8491F901E9
:100B9000EF55FE4FD491F901E55AFE4FC491CC2395
:100BA000C1F0162F811153DDEC2FF0E0EE0FFF1F87
:100BB000E95DFE4FA591B4918FB7F894111105C06E
:100BC0009C91ED2FE095E92302C0EC91ED2BEC9385
:100BD0008FBFDF91CF911F910895CF93DF9390E066
:100BE000FC01EF55FE4F2491FC01E55AFE4F849124
:100BF000882361F190E0880F991FFC01E951FE4FB5
:100C0000C591D491FC01E95DFE4FA591B4916111AC
:100C100009C09FB7F8948881209582238883EC913E
:100C20002E230BC0623061F49FB7F8943881822F75
:100C3000809583238883EC912E2B2C939FBF06C035
:100C40008FB7F894E8812E2B28838FBFDF91CF9147
:100C500008958F929F92AF92BF92CF92DF92EF92C0
:100C6000FF926B017C0149DD4B015C01C114D10491
:100C7000E104F104E9F041DDDC01CB0188199909B7
:100C8000AA09BB09883E9340A105B10578F321E08C
:100C9000C21AD108E108F10888EE880E83E0981E98
:100CA000A11CB11CC114D104E104F10421F7DECF71
:100CB000FF90EF90DF90CF90BF90AF909F908F907C
:100CC00008951F920F920FB60F9211242F933F9306
:100CD0008F939F93AF93BF938091A0029091A102B5
:100CE000A091A202B091A30230918D0423E0230FC2
:100CF0002D3720F40196A11DB11D05C026E8230F54
:100D00000296A11DB11D20938D048093A0029093A3
:100D1000A102A093A202B093A30280918E049091AD
:100D20008F04A0919004B09191040196A11DB11D72
:100D300080938E0490938F04A0939004B0939104B9
:100D4000BF91AF919F918F913F912F910F900FBEC7
:100D50000F901F9018951F920F920FB60F921124AB
:100D60000BB60F922F933F934F935F936F937F93A5
:100D70008F939F93AF93BF93EF93FF93E091A6025E
:100D8000F091A702309709F451C0968DA685B785DA
:100D9000858591FF04C09C91892329F447C09C91CB
:100DA000892309F043C0A389B4899C9185898095E2
:100DB00089238C93868997890197F1F7608D718DCE
:100DC000A685B785558538E020E0CB010197F1F77E
:100DD000822F90E095958795282F4C91452309F017
:100DE0002068315091F7868D81FD20958091A50274
:100DF00090E001968F7399273091A402381749F03B
:100E0000A091A502B0E0A95FBB4F2C938093A502EF
:100E100003C0868D8160868F828D938D0197F1F757
:100E2000A389B4899C918589892B8C93FF91EF913B
:100E3000BF91AF919F918F917F916F915F914F91F2
:100E40003F912F910F900BBE0F900FBE0F901F90F0
:100E50001895E091A602F091A702E817F90769F446
:100E6000A389B4899C918589809589238C9310925C
:100E7000A7021092A60281E0089580E008951F92D3
:100E80000F920FB60F9211240BB60F922F933F9330
:100E90004F935F936F937F938F939F93AF93BF9382
:100EA000EF93FF938091B900887F803609F49CC04E
:100EB00068F5883209F45BC090F4803109F454C0BD
:100EC00038F4882309F4F6C0883009F44DC0F5C021
:100ED000883109F44CC0803209F45DC0EEC0803422
:100EE00009F468C048F4803309F455C0883309F028
:100EF000E4C080936A04D8C0803509F44FC08835B7
:100F000009F45DC0883409F0D8C0D6C0883909F426
:100F1000C7C0A8F4883709F467C038F4883609F4E4
:100F200063C0803709F460C0C8C0883809F4B8C00D
:100F3000803909F45FC0803809F0BFC05BC0803BD6
:100F400009F486C038F4803A09F466C0883A09F496
:100F50007FC0B3C0803C09F4A7C0883C09F4A4C09A
:100F6000883B09F48AC0A9C08091470410C09091C1
:100F7000690480916804981770F5E091690481E034
:100F80008E0F80936904F0E0E85BFB4F80818093D3
:100F9000BB0085EC86C080936A048EC0E091690432
:100FA00081E08E0F809369048091BB00F0E0E85BE4
:100FB000FB4F808390916904809168046EC0E0913A
:100FC000690481E08E0F809369048091BB00F0E09A
:100FD000E85BFB4F80838091A90281116DC081E0A5
:100FE0008093A80284EA61C083E08093AA021092F1
:100FF0000604CFCF80910604803208F051C0E09102
:10100000060481E08E0F809306048091BB00F0E01F
:10101000EA51FC4F8083BDCF85EC8093BC001092D9
:10102000AA0280910604803230F4E0910604F0E0D8
:10103000EA51FC4F10826091060470E0E091E403F5
:10104000F091E50386EE93E019951092060435C001
:1010500084E08093AA021092E3031092E203E091ED
:10106000E003F091E10319958091E203811105C03D
:1010700081E08093E2031092C003E091E30381E0FA
:101080008E0F8093E303F0E0E054FC4F8081809367
:10109000BB009091E3038091E203981708F479CFA5
:1010A00085E88093BC0009C085EC8093BC00109259
:1010B000AA0203C010926A04EADBFF91EF91BF918C
:1010C000AF919F918F917F916F915F914F913F91E0
:1010D0002F910F900BBE0F900FBE0F901F90189581
:1010E000109226031092250388EE93E0A0E0B0E072
:1010F0008093270390932803A0932903B0932A0396
:101100002AE032E0309324032093230325EC30E0DF
:101110003093300320932F0324EC30E030933203DC
:101120002093310320EC30E03093340320933303D9
:1011300021EC30E0309336032093350322EC30E08D
:10114000309338032093370326EC30E030933A0392
:101150002093390310923C0310923D0310923E03FA
:1011600010923F031092B2021092B1028093B30228
:101170009093B402A093B502B093B6028AE192E0D4
:101180009093B0028093AF021092E7021092E602B1
:101190001092E9021092E8021092EB021092EA0219
:1011A0006BE070E080E090E0D8D40097A1F09093DD
:1011B000E7028093E6022AE030E03093E9022093D0
:1011C000E8022091EA023091EB02232B09F096C04D
:1011D000FC01108293C08091E6029091E702009793
:1011E00009F023D41092E7021092E6021092EB026B
:1011F0001092EA021092E9021092E8021092DD02C7
:101200001092DC028AE392E09093DB028093DA0290
:1012100087E28093DE0284E18093E20284E080939F
:10122000E3021092E40288E08093E5021092BE028D
:101230001092BD0288EE93E0A0E0B0E08093BF0280
:101240009093C002A093C102B093C2028AE292E0DE
:101250009093BC028093BB021092D2021092D102F2
:101260001092D4021092D3021092D6021092D5029C
:101270001092D8021092D7026091D9026E7F6D7FD2
:101280006093D9026695617081E068278EE076DC14
:1012900061E08EE0A2DCEFEAF1E0E491E093CB02C2
:1012A000E9E6F1E0E491F0E0EE0FFF1FE95DFE4FAB
:1012B000859194919093CD028093CC0260E080E080
:1012C0008CDC8091D90281FD03C061E080E056DCB6
:1012D0001092C702E1EAF1E0E491E093C802EBE585
:1012E000F1E0E491F0E0EE0FFF1FEF5BFE4F859120
:1012F00094919093CA028093C90208952AE030E045
:101300003093EB022093EA026EE372E017D576CFBA
:10131000789484B5826084BD84B5816084BD85B5D0
:10132000826085BD85B5816085BD80916E008160DC
:1013300080936E0010928100809181008260809382
:101340008100809181008160809381008091800084
:101350008160809380008091B10084608093B100AF
:101360008091B00081608093B00080919100826094
:101370008093910080919100816080939100809191
:1013800090008160809390008091A10082608093A2
:10139000A1008091A10081608093A1008091A000B4
:1013A00081608093A000809121018260809321015F
:1013B00080912101816080932101809120018160D1
:1013C0008093200180917A00846080937A008091DC
:1013D0007A00826080937A0080917A0081608093A5
:1013E0007A0080917A00806880937A001092C10020
:1013F00010921F03109220031092210310922203D7
:101400001092ED021092EE021092EF021092F00292
:1014100060ED77E080E090E01CDC83E293E0909365
:101420001E0380931D030E9458012FB7F8948091EA
:10143000A0029091A102A091A202B091A3022FBF9D
:101440004091ED025091EE026091EF027091F00236
:10145000841B950BA60BB70BC297A105B10530F401
:1014600063E070E080E090E0F4DBDFCF2FB7F8942A
:101470008091A0029091A102A091A202B091A3023A
:101480002FBF8093ED029093EE02A093EF02B093F2
:10149000F00269E472E080911D0390911E0352D81E
:1014A0006AE070E080E090E0D4DB81E08093F102BC
:1014B0001092D6021092D5021092D4021092D3024A
:1014C0001092D2021092D1028DE991E09093D8024D
:1014D0008093D7028091C70296EF980F943048F01E
:1014E0002EEC280F243028F022EC280F283008F0AA
:1014F0006EC02DEB30E03093D2022093D1022BE965
:1015000031E03093D4022093D3022CE231E03093C7
:10151000D6022093D502943060F02EEC280F2430B0
:1015200040F022EC280F283008F4A5C1A0E0B0E07C
:10153000A4C1A8E6B0E0E8E6F0E02081943018F01D
:101540008E53883010F081E001C084E0822B8C93B0
:101550008091C70296EF980F943058F02EEC280F28
:10156000243038F022EC280F283030F020E030E032
:1015700005C02BE630E002C02DE630E03093CF020C
:101580002093CE02943010F49AEF0BC0823381F096
:10159000833381F0843381F092EC980F983070F4AB
:1015A00092EC980F81E001C0880F9A95EAF707C086
:1015B00088E005C084E003C082E001C081E0809340
:1015C000D0028091D7029091D8020197F1F78091D3
:1015D000D5029091D602892B19F18091A6029091A3
:1015E000A70222E08B3B9207D9F0009709F031DC8B
:1015F0008091D9028E7F8093D9021092A502109219
:10160000A4028BEB92E09093A7028093A602E09154
:10161000CE02F091CF0290818091D002892B8083FD
:101620000E9458011092AE021092AD021092AC02CC
:101630001092AB021092AA0281E08093A90210924C
:10164000A80261E084E19ADA61E085E197DA8091AD
:10165000B9008E7F8093B9008091B9008D7F80930F
:10166000B90088E48093B80085E48093BC0060E012
:1016700082E3B3DA60E080E3B0DA60E08EE1ADDA15
:1016800060E08FE1AADA60E081E2A7DA60E08AE256
:10169000A4DA60E080E2A1DA60E088E19EDA60E04E
:1016A00084E29BDA60E083E298DA60E089E195DA2F
:1016B00060E088E292DA60E08DE18FDA60E08CE24F
:1016C0008CDA60E082E289DA60E08EE286DA60E05D
:1016D0008AE183DA60E086E280DA61E085E27DDA41
:1016E00061E087E27ADA61E089E277DA61E085E356
:1016F00074DA61E084E371DA61E08CE16EDA61E072
:101700008DE26BDA61E08FE268DA61E08BE265DA44
:1017100061E081E362DA61E083E35FDA61E08BE15B
:101720005CDA61E082E32ADA61E080E327DA61E0F3
:101730008EE124DA61E08FE121DA61E081E21EDAF4
:1017400061E08AE21BDA61E080E218DA61E088E1B8
:1017500015DA61E084E212DA61E083E20FDA61E037
:1017600088E20CDA61E089E109DA61E08DE106DA0C
:1017700061E08CE203DA61E082E200DA61E08EE2AD
:10178000FDD961E08AE1FAD961E086E2F7D98BE51B
:1017900092E00E94B70282E3C9D980E3C7D98EE103
:1017A000C5D98FE1C3D9892B71F081E2BFD9892BCB
:1017B00051F08FE1BBD9892B09F451C081E2B6D930
:1017C000892B09F44CC08EE2B1D98AE2AFD980E20C
:1017D000ADD988E1ABD982E2A9D98AE1A7D986E25D
:1017E000A5D984E2A3D9892B09F184E29FD9892B59
:1017F00009F43AC083E29AD9892BC1F435C0E0914B
:101800002303F09124030190F081E02D83E293E023
:1018100019952196892B21F0FE0164916111EFCF7A
:1018200068E572E083E293E00E94A20289E17ED93A
:1018300088E27CD98DE17AD98CE278D980E692E091
:101840000E94B70268E672E083E293E00E94A2027F
:101850008CE792E00E94B7020E946A029CCF81E866
:1018600092E00E94B702AFCF83E260D9892BF1F2F8
:10187000C8E0D1E0D1CFA8E6B0E0283008F45BCED4
:10188000E0E0F0E05ACE8AE292E09093BC028093CE
:10189000BB028BEB92E0DDDA8091E6029091E702E9
:1018A000C4C097FB072E16F4009406D077FD08D02D
:1018B00013D007FC05D03EF4909581959F4F089575
:1018C000709561957F4F0895EE0FFF1F881F8BBFA6
:1018D0000790F691E02D1994AA1BBB1B51E107C09C
:1018E000AA1FBB1FA617B70710F0A61BB70B881FB0
:1018F000991F5A95A9F780959095BC01CD0108953F
:10190000CF93DF938230910510F482E090E0E09174
:101910009404F091950420E030E0C0E0D0E03097EE
:1019200011F14081518148175907C0F048175907F4
:1019300061F482819381209719F09B838A832BC065
:10194000909395048093940426C02115310519F0D5
:101950004217530718F49A01BE01DF01EF0102801C
:10196000F381E02DDCCF2115310509F1281B390B5E
:101970002430310590F412968D919C911397611546
:10198000710521F0FB019383828304C09093950439
:1019900080939404FD01329644C0FD01E20FF31FD1
:1019A00081939193225031092D933C933AC0209119
:1019B000920430919304232B41F420910202309140
:1019C00003023093930420939204209100023091FB
:1019D00001022115310541F42DB73EB740910402B3
:1019E00050910502241B350BE0919204F091930471
:1019F000E217F307A0F42E1B3F0B2817390778F0E6
:101A0000AC014E5F5F4F2417350748F04E0F5F1F44
:101A100050939304409392048193919302C0E0E029
:101A2000F0E0CF01DF91CF9108950F931F93CF93F3
:101A3000DF93009709F48CC0FC0132971382128265
:101A400000919404109195040115110581F42081F1
:101A50003181820F931F20919204309193042817B3
:101A6000390779F5F0939304E093920471C0D8019B
:101A700040E050E0AE17BF0750F412962D913C9114
:101A80001397AD012115310509F1D901F3CF9D015E
:101A9000DA013383228360817181860F971F821759
:101AA000930769F4EC0128813981260F371F2E5FD7
:101AB0003F4F318320838A819B8193838283452B8F
:101AC00029F4F0939504E093940442C01396FC9398
:101AD000EE931297ED01499159919E01240F351F04
:101AE000E217F30771F480819181840F951F0296AC
:101AF00011969C938E938281938113969C938E93DF
:101B00001297E0E0F0E0D80112968D919C91139726
:101B1000009719F0F8018C01F6CF8D919C919801F6
:101B20002E5F3F4F820F931F2091920430919304B8
:101B30002817390769F4309729F410929504109208
:101B4000940402C0138212821093930400939204AF
:101B5000DF91CF911F910F9108956F927F928F9295
:101B60009F92AF92BF92CF92DF92EF92FF920F932C
:101B70001F93CF93DF93EC01009781F4CB01DF91AA
:101B8000CF911F910F91FF90EF90DF90CF90BF907A
:101B9000AF909F908F907F906F90B2CEFC01E60F38
:101BA000F71F9C0122503109E217F30708F4A8C07F
:101BB000D9010D911C91119706171707A8F0053050
:101BC000110508F49BC0C80104978617970708F40D
:101BD00095C002501109061B170B019311936D93C9
:101BE0007C93CF0122DF8AC05B01A01AB10A4C01AD
:101BF000800E911EA0919404B091950440E050E0B5
:101C0000E12CF12C109709F44AC0A815B905D1F5BB
:101C10006D907C901197630182E0C80ED11CCA14AC
:101C2000DB0480F1A3014A195B096A0182E0C80E56
:101C3000D11C1296BC9012971396AC91B5E0CB16BE
:101C4000D10440F0B282A38351834083D9016D93C4
:101C50007C930AC00E5F1F4FC301800F911FF901D3
:101C600091838083EB2DFA2FE114F10431F0D70139
:101C70001396FC93EE93129741C0F0939504E09372
:101C800094043CC08D919C9111974817590708F412
:101C9000AC017D0112960D90BC91A02DB3CF809127
:101CA00092049091930488159905E1F4461757071B
:101CB000C8F48091000290910102009741F48DB721
:101CC0009EB74091040250910502841B950BE817C2
:101CD000F907B0F4F0939304E0939204F90171834F
:101CE00060830CC0CB010CDE7C01009749F0A80199
:101CF000BE011BD0CE0199DEC70104C0CE0102C0D7
:101D000080E090E0DF91CF911F910F91FF90EF90D5
:101D1000DF90CF90BF90AF909F908F907F906F900B
:101D2000089581E090E0F89410C0FB01DC0102C04E
:101D300001900D9241505040D8F70895FB01DC010D
:101D400001900D920020E1F7089511E0C5E2D1E085
:101D500000E005C0802FFE01B7DD2196011DC632CF
:0C1D6000D10780E00807B1F7F894FFCF2E
:101D6C000000960480000000000003028001CD01F9
:101D7C00AB01BF01490200000000CE049F04970490
:101D8C0088047A04790400000000BB0380010F046E
:101D9C002604A203BA030000000073058001362E4E
:101DAC00302E302070612D3100564D4450565F312D
:101DBC007C315F564D4450560D0A005965616800E0
:101DCC0068656C6C6F20090070616E656C5F656E88
:101DDC0061626C652073746174653A007472756528
:101DEC000050524F4752414D4D204552524F523A9E
:101DFC0020554E4B4E4F574E204D4F444521210000
:00000001FF
